S00D000075736172742E73726563E8
S11300000C94AB000C94CA000C94C8000C94C80067
S11300100C94C8000C94C8000C94C8000C94C8003C
S11300200C94C8000C94F4000C94C8000C9447037E
S11300300C94C8000C94C8000C94C8000C94C8001C
S11300400C94C8000C94C8000C94C8000C94C8000C
S11300500C94C8006E616E00696E660000407A10F0
S1130060F35A00A0724E18090010A5D4E80000E865
S11300707648170000E40B54020000CA9A3B0000C3
S113008000E1F505000080969800000040420F0052
S11300900000A08601000000102700000000E80313
S11300A0000000006400000000000A0000000000DE
S11300B00100000000002C76D888DC674F0823DF9D
S11300C0C1DFAE59E1B1B796E5E3E453C63AE65170
S11300D0997696E8E6C28426EB898C9B62ED407C97
S11300E06FFCEFBC9C9F40F2BAA56FA5F490055A33
S11300F02AF75C936B6CF9676DC11BFCE0E40D4758
S1130100FEF520E6B500D0ED902E0300943577057A
S11301100080841E080000204E0A000000C80C3332
S11301203333330F986E12831141EF8D2114893BC1
S1130130E65516CFFEE6DB18D1844B381BF77C1D41
S1130140901DA4BBE424203284725E228100C9F194
S113015024ECA1E53D2711241FBECFE5D4E0DEBF8A
S1130160CDBF10E0A0E6B0E0ECE3F6E102C00590FC
S11301700D92A63AB107D9F720E0A6EAB0E001C093
S11301801D92AD3DB207E1F70E9405010C941C0BD2
S11301900C9400001F920F920FB60F9211248F93AC
S11301A09F93829B03C01DBC1CBC06C08CB59DB52F
S11301B09093A7008093A6009F918F910F900FBEFC
S11301C00F901F90189583B7816083BF83B78D7F8D
S11301D083BF83B7846083BF89B7816089BF089573
S11301E012BE1092A80008951F920F920FB60F929C
S11301F011248F938091A8008F5F8093A8008F9122
S11302000F900FBE0F901F901895B898B9988A98C0
S1130210BC9ABD9ABF9A8F9AC09AC19A0E94E30071
S113022078940E9476020E941902C498C598C798CF
S1130230979885B7816085BF85B78D7F85BF8BB75C
S113024080648BBF8EB58E7F8EBD8EB582608EBD71
S1130250BC9A8A980F2EFCE98F2EF0E09F2EF02D89
S113026002E610E00F2EFEE7CF2EF0E0DF2EF02D99
S1130270512C0F2EF3E96F2EF0E07F2EF02D0F2E70
S1130280F4E7EF2EF0E0FF2EF02D442443940F2EDC
S1130290F8E8AF2EF0E0BF2EF02DC49A25E32A959E
S11302A0F1F70000C4988FEF94E32CE08150904064
S11302B02040E1F700C00000C091A600D091A70043
S11302C00E9427030E94350385E00E94250280FDD9
S11302D018C01F930F930E940303FF92EF920E9492
S11302E003038FEF99E628E1815090402040E1F725
S11302F000C000000F900F900F900F90B09B19C09A
S113030090C01F930F930E940303DF92CF920E9429
S113031003038FEF99E628E1815090402040E1F7F4
S113032000C000000F900F900F900F90B09B76C00C
S11303307CC0C59A44EF51E060E070E080E09FE348
S11303400E9480030E9427030E943503BF92AF924C
S11303500E9403030E94F0008091A8000F900F9068
S11303608F3028F4979A8091A8008F30D8F397980B
S1130370C59857C0C79A4AEF50E060E070E080E04B
S11303809FE30E9480030E9427030E9435037F920B
S11303906F920E940303C7980F900F907ECF88231B
S11303A009F47BCFBE0180E090E00E94220820E0A7
S11303B030E048E851E40E94D40820E030E04AE705
S11303C054E40E947A0720E030E040EA50E40E94BE
S11303D0750718160CF461CFC79A4AEF50E060E035
S11303E070E080E09FE30E9480030E9427030E9444
S11303F035039F928F920E9403030E94F000809124
S1130400A8000F900F908F3030F4C798979A80917E
S1130410A8008F30D0F3C79897983FCFB09BAACF4E
S11304203CCFB09BBFCF842DBACFB09BA3CF852D3B
S1130430B6CF87B18F7387B93E9A86B1887F86B964
S113044086B1876086B9379A089597B1907E97B937
S113045097B18770982B97B9369A349BFECF349A0C
S113046084B195B1089589EF90E00197F1F700C048
S11304700000979A89EF90E00197F1F700C000001F
S1130480979889EF90E00197F1F700C00000089574
S1130490CF93C82F662311F0959A01C09598AB9815
S11304A0AA98A998A898CC230CF4AB9AC6FDAA9A4A
S11304B0C5FDA99AC4FDA89A0E943302AB98AA98D4
S11304C0A998A898C3FDAB9AC2FDAA9AC1FDA99A9E
S11304D0C0FDA89A0E943302A89AA99AAA9AAB9A34
S11304E0CF91089560E00E94480208958D9A8F9AF2
S11304F0A09AA19AA29AA39A979895988FE99FE0B7
S11305000197F1F700C0000083E00E9472020E948C
S1130510330281EE94E00197F1F700C0000083E01C
S11305200E9472020E94330289EF90E00197F1F772
S113053000C0000083E00E9472020E94330281EE38
S113054094E00197F1F700C0000088E30E94720272
S11305500E94330281E00E94720283EC99E00197C9
S1130560F1F700C0000082E00E94720283EC99E07F
S11305700197F1F700C000008CE00E94720283EC46
S113058099E00197F1F700C000000895823031F03E
S1130590833031F0813031F490E405C094E103C03C
S11305A094E501C090E0282F30E03093AA00209316
S11305B0A90080E8890F0E94720208958A3079F4B4
S11305C08091A9009091AA001816190624F480E0DD
S11305D00E94C60208958F5F0E94C602089561E0DA
S11305E00E9448020895CF93DF93EC012196FC0109
S11305F08081882329F00E94DE0289918111FBCF3A
S1130600DF91CF910895CF93DF93CDB7DEB7C05577
S1130610D1090FB6F894DEBF0FBECDBFAE014B5A61
S11306205F4FFA0161917191AF01CE0101960E9471
S1130630A20ACE0101960E94F302C05BDF4F0FB6FF
S1130640F894DEBF0FBECDBFDF91CF910895109215
S1130650AA001092A90081E00E94720283EC99E042
S11306600197F1F700C0000008951092AA001092BB
S1130670A90082E00E94720283EC99E00197F1F7ED
S113068000C0000008955F9BFECF8CB108951F92B7
S11306900F920FB60F9211242F933F934F935F93B2
S11306A06F937F938F939F93AF93BF93CF93DF9376
S11306B0EF93FF93C0916000D09161000E944303C7
S11306C08883E0916000F091610080818D3029F091
S11306D03196F0936100E0936000FF91EF91DF9118
S11306E0CF91BF91AF919F918F917F916F915F91C6
S11306F04F913F912F910F900FBE0F901F9018951F
S11307008F929F92AF92BF92CF92DF92EF92FF921D
S11307100F931F936B017C01BA01550F880B990B42
S11307200E9424084B015C01A70196010E94D40891
S11307300E94EC076B017C01A501940160E070E06C
S113074080E89FE30E947A0720E030E543EC57E419
S11307500E94D4080E94EC078A9A1C141D041E04EB
S11307601F040CF03AC08B019C01992324F40F5F01
S11307701F4F2F4F3F4F3595279517950795812C80
S1130780912C5401011511052105310511F1D901EF
S1130790C801B901A801EAE1EA95F1F700C04150A6
S11307A0510961097109B9F716C04AE14A95F1F78F
S11307B000C00197A109B109C1F792988FEF881A77
S11307C0980AA80AB80AC814D904EA04FB04D1F6A2
S11307D004C0929AF2CF929AE8CF1F910F91FF90A2
S11307E0EF90DF90CF90BF90AF909F908F9008953F
S11307F0A0E1B0E0EEEFF3E00C9441097C011B01B1
S11308006A01FC0117821682838181FF44C39E0121
S11308102F5F3F4F3901F7019381F10193FD8591DA
S113082093FF81911F01882309F431C3853239F480
S113083093FD859193FF81911F01853239F4B701AE
S113084090E00E94660A56016501E5CF10E0512C44
S1130850912CFFE1F915D8F08B3279F038F480321D
S113086079F08332A1F4F92DF0612EC08D3261F05C
S1130870803369F4292D21602DC0392D3260932EE7
S1130880892D8460982E2AC0E92DE86015C097FC54
S11308902DC020ED280F2A3088F496FE06C03AE0D9
S11308A0139F200D1124122F19C08AE0589E200D89
S11308B01124522EE92DE0629E2E10C08E3231F4A6
S11308C096FCE5C2F92DF0649F2E08C08C3621F405
S11308D0292D2068922E02C0883641F4F10193FD3F
S11308E0859193FF81911F018111B3CF9BEB980FE9
S11308F0933020F4992D9061805E07C09BE9980F96
S1130900933008F066C1992D9F7E96FF16E09F7381
S1130910992E853619F49064992E08C0863621F4F0
S1130920392F3068932E02C01111115097FE07C061
S11309301C3350F444244394410E27E00BC0183078
S113094038F027E017E005C027E09CE3492E02C0F9
S1130950212F412C560184E0A80EB11CF6016081C0
S1130960718182819381042DA3010E9478096C0115
S1130970F981FC87F0FF02C0F3FF06C091FC06C0BA
S113098092FE06C000E205C00DE203C00BE201C006
S113099000E08C858C7019F001115AC29BC297FE3D
S11309A010C04C0CFC85F4FF04C08A81813309F427
S11309B04A94141474F528E0241578F588E0482E38
S11309C02CC096FC2AC0812F90E08C159D059CF0CC
S11309D03CEFC3163FEFD30674F0892D8068982E40
S11309E00AC0E2E0F0E0EC0FFD1FE10FF11D808191
S11309F0803319F411501111F4CF97FE0EC0442422
S1130A004394410E812F90E0C816D9062CF41C198A
S1130A1004C04424439401C010E097FE06C01C1493
S1130A201D0434F4C601019605C085E090E002C0BF
S1130A3081E090E001110196112331F0212F30E083
S1130A402F5F3F4F820F931F252D30E082179307AE
S1130A5014F4581A01C0512C892D897049F4552079
S1130A6039F0B70180E290E00E94660A5A94F7CF09
S1130A70002329F0B701802F90E00E94660A93FCBE
S1130A8009C0552039F0B70180E390E00E94660A5E
S1130A905A94F7CF97FE4CC04601D7FE02C0812C72
S1130AA0912CC60188199909F301E80FF91FFE87F3
S1130AB0ED87960124193109388B2F87012F10E017
S1130AC01195019511093FEF8316930629F4B70197
S1130AD08EE290E00E94660AC814D9044CF08F8517
S1130AE098898815990524F4ED85FE85818101C0D6
S1130AF080E3F1E08F1A91082D853E852F5F3F4FEB
S1130B003E872D87801691062CF0B70190E00E9455
S1130B10660AD9CFC814D90441F49A81963320F4D3
S1130B20953319F43C8534FF81E3B70190E04EC05E
S1130B308A81813319F09C859F7E9C87B70190E060
S1130B400E94660A111105C094FC18C085E690E065
S1130B5017C0B7018EE290E00E94660A1E5F82E031
S1130B6001E0080FF301E80FF11D8081B70190E067
S1130B700E94660A802F0113F3CFE6CF85E490E04C
S1130B80B7010E94660AD7FC06C0C114D10441F41F
S1130B90EC85E4FF05C0D194C194D1088DE201C075
S1130BA08BE2B70190E00E94660A80E32AE0C21655
S1130BB0D1042CF08F5FFAE0CF1AD108F7CFB70138
S1130BC090E00E94660AB701C601C0960E94660AB8
S1130BD054C1833631F0833779F0833509F056C038
S1130BE020C0560132E0A30EB11CF6018081898336
S1130BF001E010E0630112C05601F2E0AF0EB11C37
S1130C00F601C080D18096FE03C0612F70E002C05F
S1130C106FEF7FEFC6010E945B0A8C01F92DFF770D
S1130C2014C0560122E0A20EB11CF601C080D1808E
S1130C3096FE03C0612F70E002C06FEF7FEFC60124
S1130C400E94500A8C01F92DF0689F2EF3FD1AC002
S1130C50852D90E008171907A8F4B70180E290E009
S1130C600E94660A5A94F4CFF60197FC859197FE88
S1130C7081916F01B70190E00E94660A51105A9465
S1130C80015011090115110579F7F7C0843611F0E7
S1130C90893661F5560197FE09C024E0A20EB11C05
S1130CA0F60160817181828193810AC0F2E0AF0E06
S1130CB0B11CF60160817181072E000C880B990B21
S1130CC0F92DFF769F2E97FF09C09095809570951A
S1130CD061957F4F8F4F9F4FF0689F2E2AE030E041
S1130CE0A3010E94BE0AC82EC6183FC0092D85372D
S1130CF021F40F7E2AE030E01DC0097F8F3691F089
S1130D0018F4883559F0C3C0803719F0883711F0CA
S1130D10BEC0006104FF09C0046007C094FE08C09F
S1130D20066006C028E030E005C020E130E002C0E3
S1130D3020E132E0560107FF09C084E0A80EB11C8F
S1130D40F601608171818281938108C0F2E0AF0E67
S1130D50B11CF6016081718180E090E0A3010E94E2
S1130D60BE0AC82EC6180F77902E96FE0BC0092D0A
S1130D700E7FC11650F494FE0AC092FC08C0092DDF
S1130D800E7E05C0DC2C092D03C0DC2C01C0D12E45
S1130D9004FF0DC0FE01EC0DF11D8081803311F4C0
S1130DA0097E09C002FF06C0D394D39404C0802FE7
S1130DB0867809F0D39403FD11C000FF06C01C2DF2
S1130DC0D51480F4150D1D190DC0D51458F4B701B0
S1130DD080E290E00E94660AD394F7CFD51410F411
S1130DE05D1801C0512C04FF10C0B70180E390E0EE
S1130DF00E94660A02FF17C001FD03C088E790E065
S1130E0002C088E590E0B7010CC0802F867859F0C5
S1130E1001FF02C08BE201C080E207FD8DE2B70151
S1130E2090E00E94660AC11638F4B70180E390E0AE
S1130E300E94660A1150F7CFCA94F301EC0DF11D1C
S1130E408081B70190E00E94660AC110F5CF15C0F9
S1130E50F4E0F51560F584E0581A93FE1FC0011103
S1130E6027C02C8523FF2AC004E510E0392D3071FA
S1130E70932EF8018491811124C0552009F4E4CC07
S1130E80B70180E290E00E94660A5A94F6CFF70117
S1130E908681978126C08FEF9FEF23C0B70180E240
S1130EA090E00E94660A5A945110F8CFD8CF512C82
S1130EB0B701802F90E00E94660AD3CF08E510E0C6
S1130EC0D5CF91108052B70190E00E94660A0F5F5F
S1130ED01F4FCFCF23E0251510F483E0BDCF512C55
S1130EE0C0CF6096E2E10C945D090E945F0808F4AB
S1130EF081E008950E948E070C949A080E9493083A
S1130F0058F00E948C0840F029F45F3F29F00C94BB
S1130F10830851110C94CE080C9489080E94AB08E4
S1130F2068F39923B1F3552391F3951B550BBB2714
S1130F30AA2762177307840738F09F5F5F4F220F59
S1130F40331F441FAA1FA9F335D00E2E3AF0E0E850
S1130F5032D091505040E695001CCAF72BD0FE2F9A
S1130F6029D0660F771F881FBB1F2617370748072E
S1130F70AB07B0E809F0BB0B802DBF01FF279358E6
S1130F805F4F3AF09E3F510578F00C9483080C941F
S1130F90CE085F3FE4F3983ED4F386957795679542
S1130FA0B795F7959F5FC9F7880F911D969587951B
S1130FB097F90895E1E0660F771F881FBB1F62173A
S1130FC073078407BA0720F0621B730B840BBA0BF8
S1130FD0EE1F88F7E09508950E94F3076894B11115
S1130FE00C94CE0808950E94B30888F09F5798F097
S1130FF0B92F9927B751B0F0E1F0660F771F881F1A
S1131000991F1AF0BA95C9F714C0B13091F00E9433
S1131010CD08B1E008950C94CD08672F782F882768
S1131020B85F39F0B93FCCF3869577956795B3955A
S1131030D9F73EF490958095709561957F4F8F4FC9
S11310409F4F0895E89409C097FB3EF490958095CE
S1131050709561957F4F8F4F9F4F9923A9F0F92F7A
S113106096E9BB279395F695879577956795B795F8
S1131070F111F8CFFAF4BB0F11F460FF1BC06F5FDE
S11310807F4F8F4F9F4F16C0882311F096E911C0F0
S1131090772321F09EE8872F762F05C0662371F011
S11310A096E8862F70E060E02AF09A95660F771F25
S11310B0881FDAF7880F9695879597F90895990F01
S11310C00008550FAA0BE0E8FEEF16161706E8070E
S11310D0F907C0F012161306E407F50798F0621B2F
S11310E0730B840B950B39F40A2661F0232B242B04
S11310F0252B21F408950A2609F4A140A6958FEF23
S1131100811D811D089597F99F6780E870E060E074
S113111008959FEF80EC089500240A94161617068C
S113112018060906089500240A94121613061406D4
S113113005060895092E0394000C11F4882352F037
S1131140BB0F40F4BF2B11F460FF04C06F5F7F4FEF
S11311508F4F9F4F089557FD9058440F551F59F0D6
S11311605F3F71F04795880F97FB991F61F09F3F90
S113117079F087950895121613061406551FF2CFB9
S11311804695F1DF08C0161617061806991FF1CF09
S113119086957105610508940895E894BB27662730
S11311A07727CB0197F908950E94E7080C949A08D1
S11311B00E948C0838F00E94930820F0952311F0C7
S11311C00C9483080C94890811240C94CE080E9472
S11311D0AB0870F3959FC1F3950F50E0551F629FC4
S11311E0F001729FBB27F00DB11D639FAA27F00D7C
S11311F0B11DAA1F649F6627B00DA11D661F829FA3
S11312002227B00DA11D621F739FB00DA11D621F87
S1131210839FA00D611D221F749F3327A00D611DA4
S1131220231F849F600D211D822F762F6A2F112486
S11312309F5750409AF0F1F088234AF0EE0FFF1FB9
S1131240BB1F661F771F881F91505040A9F79E3F10
S1131250510580F00C9483080C94CE085F3FE4F3AE
S1131260983ED4F3869577956795B795F795E79566
S11312709F5FC1F7FE2B880F911D9695879597F96F
S113128008952F923F924F925F926F927F928F9226
S11312909F92AF92BF92CF92DF92EF92FF920F9301
S11312A01F93CF93DF93CDB7DEB7CA1BDB0B0FB60B
S11312B0F894DEBF0FBECDBF09942A8839884888C8
S11312C05F846E847D848C849B84AA84B984C8845E
S11312D0DF80EE80FD800C811B81AA81B981CE0F55
S11312E0D11D0FB6F894DEBF0FBECDBFED0108953A
S11312F0283008F027E03327DA01990F311D87FDE4
S1131300916000966105710539F432602E5F3D935A
S113131030E32A95E1F708959F3F30F08038710556
S1131320610509F03C5F3C5F3D93913008F08068B3
S1131330911DDF93CF931F930F93FF92EF92192F79
S1131340987F9695E92F96959695E90FFF27EA548D
S1131350FF4F99273327EE24FF24A701E7010590C7
S11313600894079428F4360FE71EF81E491F511DF0
S1131370660F771F881F991F0694A1F7059007949D
S113138028F4E70EF81E491F561FC11D770F881F4A
S1131390991F661F0694A1F70590079428F4F80E88
S11313A0491F561FC71FD11D880F991F661F771F1E
S11313B00694A1F70590079420F4490F561FC71F00
S11313C0D81F990F661F771F881F0694A9F7849169
S11313D01095177041F0D695C79557954795F79492
S11313E0E7941A95C1F7ECE5F0E06894159015912F
S11313F035916591959105907FE27395E118F10A15
S1131400430B560BC90BD009C0F7E10CF11E431F67
S1131410561FC91FD01D7EF4703311F48A95E6CF90
S1131420E894015030F0080F0AF40027021708F47A
S1131430202F2395022F7A3328F079E37D932A9580
S1131440E9F710C07D932A9589F6069497956795D8
S1131450379517951794E118F10A430B560BC90BEE
S1131460D00998F023957E9173957A3308F070E350
S11314707C932013B8F77E9170617D9330F083954F
S113148071E37D9370E32A95E1F71124EF90FF90C7
S11314900F911F91CF91DF91992787FD9095089522
S11314A0FC010590615070400110D8F7809590952B
S11314B08E0F9F1F0895FC01615070400190011030
S11314C0D8F7809590958E0F9F1F08950F931F93C3
S11314D0CF93DF93FB01238121FD03C08FEF9FEFA7
S11314E02CC022FF16C046815781248135814217C2
S11314F0530744F4A081B1819D012F5F3F4F318395
S113150020838C93268137812F5F3F4F3783268337
S113151014C08B01EC01FB010084F185E02D0995D9
S1131520892BE1F6D80116968D919C911797019617
S113153017969C938E931697CE01DF91CF911F91AE
S11315400F910895AEE0B0E0E8EAFAE00C944F0998
S11315508C0186E08C831A8309838FEF9FE79E8337
S11315608D83CE0101960E94F803EF81F885E00F88
S1131570F11F10822E96E4E00C946B09FA01AA275D
S1131580283051F1203181F1E8946F936E7F6E5FC2
S11315907F4F8F4F9F4FAF4FB1E03ED0B4E03CD070
S11315A0670F781F891F9A1FA11D680F791F8A1F53
S11315B0911DA11D6A0F711D811D911DA11D20D0BA
S11315C009F468943F912AE0269F11243019305D74
S11315D03193DEF6CF010895462F4770405D419365
S11315E0B3E00FD0C9F7F6CF462F4F70405D4A33B2
S11315F018F0495D31FD4052419302D0A9F7EACF7A
S1131600B4E0A6959795879577956795BA95C9F7A8
S113161000976105710508959B01AC010A2E06949B
S11316205795479537952795BA95C9F7620F731F54
S10F1630841F951FA01D0895F894FFCF9F
S113163CAB004F646F62726974693F205042303D55
S113164C4F4B0A003C64613E2020206E65006461AF
S113165C2020203C6E653E004F746B6C6A75636190
S113166C6E6F006F6462696A656E6F007A6174767E
S109167C6F72656E6F0041
S9030000FC
